:020000040800F2
:1000000000800020A10E0008150D0008170D000843
:10001000190D00081B0D00081D0D00080000000050
:100020000000000000000000000000001F0D00089C
:10003000210D000800000000230D0008250D000818
:10004000E90E0008E90E0008E90E0008E90E0008B4
:10005000E90E0008E90E0008E90E0008E90E0008A4
:10006000E90E0008E90E0008E90E0008E90E000894
:10007000E90E0008E90E0008E90E0008E90E000884
:10008000E90E0008E90E0008E90E0008E90E000874
:10009000E90E0008E90E0008E90E0008E90E000864
:1000A000E90E0008E90E0008E90E0008E90E000854
:1000B000E90E0008E90E0008E90E0008E90E000844
:1000C000E90E0008E90E0008E90E0008E90E000834
:1000D000E90E0008E90E0008E90E0008E90E000824
:1000E000E90E0008E90E0008E90E0008E90E000814
:1000F000E90E0008E90E0008E90E0008E90E000804
:10010000000000000000000000000000E90E0008F0
:10011000E90E0008E90E0008E90E0008E90E0008E3
:10012000E90E0008E90E0008E90E0008E90E0008D3
:10013000E90E0008E90E00080000000000000000C1
:10014000E90E0008E90E0008E90E000800000000B2
:10015000000000000000000000000000000000009F
:100160000000000000000000E90E0008E90E000891
:10017000E90E000800000000000000000000000080
:0801800000000000E90E000878
:10018800B0F1904F08B521D03A4B98422AD03A4B5B
:10019800984233D0394B98423CD0394B984245D09D
:1001A800384B98424ED0384B984257D0374B9842EC
:1001B80000D008BD01214FF4803000F0AFFC0021D1
:1001C8004FF48030BDE8084000F0A8BC01214FF48E
:1001D800003000F0A3FC00214FF40030BDE80840D7
:1001E80000F09CBC01214FF4802000F097FC002116
:1001F8004FF48020BDE8084000F090BC01214FF486
:10020800002000F08BFC00214FF40020BDE80840DE
:1002180000F084BC01214FF4801000F07FFC002125
:100228004FF48010BDE8084000F078BC01214FF47D
:10023800001000F073FC00214FF40010BDE80840E6
:1002480000F06CBC01214FF4800000F067FC002135
:100258004FF48000BDE8084000F060BC01214FF475
:10026800000000F05BFC00214FF40000BDE80840EE
:1002780000F054BC0004004800080048000C004886
:10028800001000480014004800180048001C0048EE
:1002980000222DE9F04713460F6801264FF0030EA0
:1002A80004E00133102B02F1020227D006FA03F40E
:1002B80034EA0705F5D191F804C00CF1FF35012D9A
:1002C8000EFA02F51CD9ED43D0F80080CC7908EA83
:1002D80005050560D0F800800CFA02F545EA080526
:1002E8000560C5680EFA02FC944025EA0C05013346
:1002F8002C43102BC46002F10202D7D1BDE8F0876D
:10030800D0F808A091F8058091F806900EFA02F549
:10031800ED430AEA050AC0F808A0D0F808A008FAD0
:1003280002F848EA0A08C0F80880B0F804801FFA02
:1003380088F828EA04048480B0F8048009FA03F4F1
:1003480044EA0804A4B28480BEE700BF00234FF645
:10035800FF7102220160427103718371C37170479A
:1003680041F48033C361C161C361C369C369704724
:10037800038A194214BF012000207047008A80B206
:10038800704700BF838A194214BF012000207047BC
:10039800808A80B2704700BF8161704701857047CD
:1003A8000AB9018570478161704700BF8182704733
:1003B800CB0800EB830001F0070110B48900046A40
:1003C8000F238B4024EA03030362036A5DF8044B9E
:1003D8008A4042EA03010162704700BF114B124A8A
:1003E8001868124940F001001860586802405A60C5
:1003F8001A6822F0847222F480321A601A6822F491
:1004080080221A605A6822F4FE025A60DA6A22F4DC
:100418007F5222F03F02DA62186B00220140196312
:100428009A6070470010024000C0FFF8CCEC000F43
:10043800024B00221A701870704700BF0210024069
:1004480082B000230A4A019302E0B3F5A04F08D016
:10045800136813F4003F019B03F101030193019B0F
:10046800F3D0034B1868C0F3404002B0704700BF98
:1004780000100240034A136823F0F80343EAC0005F
:100488001060704700100240014B1860704700BFB1
:1004980000004242064B1A6A22F001021A621A6AE6
:1004A80022F004021A621A6A10431862704700BFE9
:1004B80000100240044B1A6A22F018021A621A6AE3
:1004C80010431862704700BF00100240014B1860CB
:1004D800704700BF80044242044A536823F47413EF
:1004E8005360536819430843506070470010024036
:1004F800014B1860704700BF60004242034AD36A4C
:1005080023F00F031843D062704700BF0010024069
:10051800014B1860704700BF4C004242034A5368C1
:1005280023F0074343EA0060506070470010024020
:10053800034A536823F0030318435060704700BF11
:1005480000100240024B586800F00C00704700BFD2
:1005580000100240034A536823F0F0031843506028
:10056800704700BF00100240034A536823F4E06359
:1005780018435060704700BF00100240034A536898
:1005880023F4605343EAC0005060704700100240F3
:10059800A34B5A6802F00C02042A2DE9F04100F03E
:1005A8005981082A00F042819E49016002B1002267
:1005B8009B4E9D4C7368C3F30313E75CFFB221FAAB
:1005C80007F343607568C5F30225655D23FA05F5F1
:1005D8008560D6F804E0CEF3C22E14F80EE05FFA78
:1005E8008EFE23FA0EF3C360F66A360906F00F0C86
:1005F80004EB4C0CF606BCF810C01FFA8CFC03D5B3
:10060800BCF1000F40F004810161854EF66A760A5C
:1006180006F00F0C04EB4C04F606248AA4B202D5AB
:10062800002C40F0F98041617D4C246BE4065CBFEE
:100638007C4C84617A4C48BF8161246BA6065CBF00
:10064800784CC461764C48BFC161246B64065CBFBA
:10065800744C0462724C48BF0162266BF60502D5E1
:100668008A4200F001816E4C4362246BE60402D595
:100678008A4200F016816A4C8362246BA60502D573
:100688008A4200F02981664CC362246B660502D554
:100698008A4200F01681624CC364246B260501D59A
:1006A8008A424FD05E4C0365266BB60453D58A4206
:1006B80000F01D810365226B8365594A146BA607F8
:1006C80011D0136B03F00303012B00F0C780136BE9
:1006D80003F00303022B00F02281136B03F00303E2
:1006E800032B01D14F4B83634D4B1A6B12F4403FE0
:1006F8003CD1C5634A4B1A6B12F4402F51D10564A3
:10070800474B1A6B12F4401F65D14564444B1A6B72
:1007180012F4400F79D01A6B02F44002B2F5800F40
:1007280000F0BC801A6B02F44002B2F5000F00F032
:10073800FA801B6B03F44003B3F5400F00F0D3803D
:10074800BDE8F0817745ADD15600354C0665246B80
:10075800A40400F1D080324C0365246B2404ABD58B
:100768008A42A9D17745A7D14E00CAE01A6B02F494
:100778004032B2F5803F00F08B801A6B02F44032B1
:10078800B2F5003F00F0BF801B6B03F44033B3F5B4
:10079800403F04BF234BC363214B1A6B12F4402F15
:1007A800ADD01A6B02F44022B2F5802F5AD01A6BE2
:1007B80002F44022B2F5002F00F0AD801B6B03F469
:1007C8004023B3F5402F04BF164B0364144B1A6B38
:1007D80012F4401F99D01A6B02F44012B2F5801F30
:1007E8003ED01A6B02F44012B2F5001F00F08F8061
:1007F8001B6B03F44013B3F5401F04BF094B43645C
:10080800074B1A6B12F4400F85D18564BDE8F0815F
:10081800B2FBFCF60661F8E6B2FBF4F4446103E7C8
:100828000010024000127A00000000205A685C683C
:10083800C2F38342E70302F102012BD5DB6A3C4A8B
:1008480003F00F030133B2FBF3F201FB02F2026083
:100858001146ADE6364901600022A9E6816343E707
:10086800416453E701644BE777457FF4FCAE4FEAF8
:10087800420CC0F824C0D4F8308018F4805F664673
:1008880013D18362246BA4057FF5FDAE664612E0A2
:10089800C1632FE7274A02FB01F2D8E78164BDE86C
:1008A800F08177457FF4E7AE5600234C8662246BCF
:1008B800A4057FF5E8AE204CC662246B640504D419
:1008C800E9E677457FF4E7AE56001B4CC664246B17
:1008D80024053FF53AAFE5E677457FF4D4AE4FEA15
:1008E800420C6646E7E7124B8364BDE8F081774522
:1008F8007FF4E0AE4E00104A4665126B17047FF590
:10090800DBAE8665D9E64FF40043C363F2E64FF4E5
:1009180000434364FAE64FF400430364F0E64FF4FF
:1009280000438363E0E64FF400438364BDE8F0814D
:1009380000127A0000093D0000100240064A030F29
:10094800D36A14BF23F4785323F4F873D362024AAA
:10095800D36A1843D062704700100240030F012B7E
:1009680012D00BD3022B04D10A4A136B23F0400395
:100978001363084A136B184310637047054A136BD7
:1009880023F010031363F4E7024A136B23F02003E8
:100998001363EEE700100240030F072B0AD8DFE8C5
:1009A80003F01E242A04300E1318194A136B23F47B
:1009B80000631363164A136B184310637047144A95
:1009C800136B23F400431363114A136B23F08073F2
:1009D80013630F4A136B23F000731363EAE70C4A9F
:1009E800136B23F480731363E4E7094A136B23F44E
:1009F80000731363DEE7064A136B23F48063136303
:100A0800D8E7034A136B23F400531363D2E700BFFC
:100A180000100240044B1A6B22F480521A631A6BBE
:100A280010431863704700BF00100240030F013BDA
:100A3800042B09D8DFE803F01319031F0D00114A2E
:100A4800136B23F4402313630E4A136B184310638C
:100A580070470C4A136B23F440031363F4E7094A05
:100A6800136B23F003031363EEE7064A136B23F4B7
:100A780040331363E8E7034A136B23F4401313630B
:100A8800E2E700BF00100240014B1860704700BF4A
:100A9800D8004242024A136A18431062704700BFE6
:100AA80000100240014B1860704700BFDC00424252
:100AB800014B1860704700BF3C044242014B18606C
:100AC800704700BF4004424229B9054A536923EAE6
:100AD800000050617047024B5A69104358617047D3
:100AE8000010024029B9054A936923EA0000906181
:100AF8007047024B9A691043986170470010024092
:100B080029B9054AD36923EA0000D0617047024B2E
:100B1800DA691043D86170470010024029B9054AC4
:100B2800936A23EA000090627047024B9A6A104366
:100B3800986270470010024029B9054AD36823EA31
:100B48000000D0607047024BDA681043D8607047E5
:100B58000010024029B9054A136923EA0000106110
:100B68007047024B1A691043186170470010024021
:100B780029B9054A137823EA000010707047024B20
:100B88001A7810431870704709100240430908D1B9
:100B98000F4B1B6800F01F0023FA00F000F0010063
:100BA8007047012B0BD0042B094B0CBF5B685B6AA9
:100BB80000F01F0023FA00F000F001007047044B1A
:100BC8001B6A00F01F0023FA00F000F001007047D4
:100BD80000100240024A536A43F080735362704720
:100BE80000100240034B9B68184214BF01200020EC
:100BF800704700BF00100240014B1870704700BFDB
:100C08000A10024082B0044B0190019A1A601A68D7
:100C1800002AFCD102B07047600000202DE9F041A5
:100C28002F4C2046FFF7B4FC63686422B3FBF2F351
:100C3800013BB3F1807F09D22A4A53602A4BF02145
:100C480083F823100023936007231360002000F02B
:100C580067F8012000F064F8022000F061F8032032
:100C680000F05EF8042000F05BF8052000F058F86A
:100C7800062000F055F807201C4D00F051F82E46CC
:100C8800002415F8140000F071F81420FFF7BAFFDB
:100C980015F81400013400F075F8082CF1D13078FB
:100CA800134C00F063F83220FFF7ACFF307800F007
:100CB80069F8A4F11007A04634F80209C0B200F0A0
:100CC80055F81420FFF79EFF98F8000000F05AF836
:100CD800BC42F0D1074A136801331360D0E700BF64
:100CE8006800002010E000E000ED00E03000002087
:100CF8003E00002064000020034B1A6812B11A68F5
:100D0800013A1A60704700BF600000207047FEE794
:100D1800FEE7FEE7FEE7704770477047FFF7ECBF56
:100D28000F4B13B50446012153F82000FFF7CCFE02
:100D38000C4B33F81430009301238DF804308DF8F0
:100D4800073003238DF80530074B0022694653F816
:100D580024008DF80620FFF79BFA02B010BD00BFF3
:100D68003C0F00085C0F000840000020034B044AB9
:100D780053F8203032F810209A6170474000002064
:100D88005C0F0008034B044A53F8203032F8102057
:100D98001A857047400000205C0F0008394AD2F8D5
:100DA800883043F47003C2F88830374B1A6842F031
:100DB80001021A605968354A0A405A601A6822F0D6
:100DC800847222F480321A601A6822F480221A602F
:100DD8005A6822F4FE025A60DA6A22F00F02DA62D6
:100DE800196B2B4A82B00A401A6300229A6000925B
:100DF80001921A6842F480321A601A6802F40032CA
:100E08000192009A01320092019A1AB9009AB2F539
:100E1800A04FF2D11A6812F4003218BF01220192D1
:100E2800019A012A05D0174B4FF000629A6002B070
:100E38007047184A122111605A685A605A685A60F5
:100E48005A6842F480625A605A6822F47C125A60E6
:100E58005A6842F4E8125A601A6842F080721A60BE
:100E68001968094A8901FBD5516821F003015160CD
:100E7800516841F0020151605A6802F00C02082AD8
:100E8800FAD1D0E700ED00E0001002400CC07FF876
:100E9800CCFC00FF00200240002103E00B4B5B5814
:100EA800435004310A480B4B42189A42F6D30A4A77
:100EB80002E0002342F8043B084B9A42F9D3FFF7BB
:100EC8006DFF00F00FF8FFF7A9FEFEE7840F00089A
:100ED800000000206000002060000020C400002006
:100EE800FEE7000070B50F4E0F4D761BB61018BF09
:100EF800002405D0013455F8043B9847A642F9D19F
:100F08000A4E0B4D761B00F02DF8B61018BF0024C2
:100F180006D0013455F8043B9847A642F9D170BD74
:100F280070BD00BF000000000000000000000000CD
:100F38000000000000002000000020000000200049
:100F48000000200000002000000020000000200019
:100F5800000020000002000100040080000800409A
:100F680000100020F8B500BFF8BC08BC9E467047CA
:0C0F7800F8B500BFF8BC08BC9E467047EE
:100F8400000000000102030401020304060708092B
:100F9400010002000400060008000A000C00100012
:100FA400200040008000000100000000000000005C
:100FB4000000010003000500070006000400020011
:100FC40000100048001000480010004800100048BD
:100FD40000100048001000480010004800100048AD
:0400000508000EA140
:00000001FF
